:020000040800F2
:100000000000032045A80008C50B0008CB0B000822
:10001000D10B0008D70B0008DD0B00080000000022
:10002000000000000000000000000000E30B0008DA
:10003000F10B000800000000FF0B00080D0C000889
:1000400095A8000895A8000895A8000895A800089C
:1000500095A8000895A8000895A8000895A800088C
:1000600095A8000895A8000895A8000895A800087C
:1000700095A8000895A8000895A8000895A800086C
:1000800095A8000895A8000895A8000895A800085C
:1000900095A8000895A8000895A8000895A800084C
:1000A00095A8000895A8000895A8000895A800083C
:1000B00095A8000895A8000895A8000895A800082C
:1000C00095A8000895A8000895A8000895A800081C
:1000D00095A8000895A8000895A8000895A800080C
:1000E00095A8000895A8000895A8000895A80008FC
:1000F00095A8000895A8000895A8000895A80008EC
:1001000095A8000895A8000895A8000895A80008DB
:1001100095A8000895A8000895A8000895A80008CB
:1001200095A8000895A8000895A8000895A80008BB
:1001300095A8000895A8000895A8000895A80008AB
:1001400095A8000895A8000895A80008190C0008B3
:1001500095A8000895A8000895A8000895A800088B
:1001600095A8000895A8000895A8000895A800087B
:1001700095A8000895A8000895A8000895A800086B
:1001800095A8000895A8000895A8000895A800085B
:1001900095A8000895A8000895A8000895A800084B
:0C01A00095A8000895A8000895A8000884
:1001AC0010B5054C237833B9044B13B10448AFF3A5
:1001BC0000800123237010BD94000020000000007B
:1001CC00B0AA000808B5034B1BB103490348AFF3B1
:1001DC00008008BD0000000098000020B0AA0008B4
:1001EC0053B94AB9002908BF00281CBF4FF0FF3192
:1001FC004FF0FF3000F07AB9ADF1080C6DE904CE88
:10020C0000F006F8DDF804E0DDE9022304B07047E5
:10021C002DE9F0478C460D460446089E002B51D123
:10022C008A4217466DD9B2FA82FEBEF1000F0BD08E
:10023C00CEF1200C01FA0EF520FA0CFC02FA0EF7A6
:10024C004CEA050C00FA0EF44FEA174A250CBCFBDD
:10025C00FAF81FFA87F90AFB18CC45EA0C4508FB9B
:10026C0009F3AB420AD9ED1908F1FF3280F0238172
:10027C00AB4240F22081A8F102083D44ED1AA4B231
:10028C00B5FBFAF00AFB105544EA054400FB09F9EA
:10029C00A14509D9E41900F1FF3380F00A81A14589
:1002AC0040F2078102383C44A4EB090440EA0840C0
:1002BC000021002E61D024FA0EF400233460736008
:1002CC00BDE8F0878B4207D9002E54D0002186E878
:1002DC0021000846BDE8F087B3FA83F1002940F00D
:1002EC008E80AB4202D3824200F2FA80841A65EB14
:1002FC0003050120AC46002E3FD086E81010BDE867
:10030C00F08712B90127B7FBF2F7B7FA87FEBEF1F7
:10031C00000F34D1EB1B3A0C1FFA87FC0121B3FB05
:10032C00F2F8250C02FB183345EA03450CFB08F3E5
:10033C00AB4207D9ED1908F1FF3002D2AB4200F203
:10034C00D1808046ED1AA3B2B5FBF2F002FB10553A
:10035C0043EA05440CFB00FCA44507D9E41900F161
:10036C00FF3302D2A44500F2B8801846A4EB0C046B
:10037C0040EA08409DE731463046BDE8F087CEF1B3
:10038C00200405FA0EF307FA0EF720FA04F83A0CDB
:10039C0025FA04F448EA0308B4FBF2F14FEA1845D5
:1003AC0002FB11441FFA87FC45EA044501FB0CF3E0
:1003BC00AB4200FA0EF409D9ED1901F1FF3080F0CF
:1003CC008A80AB4240F2878002393D44EB1A1FFA17
:1003DC0088F5B3FBF2F002FB103345EA034500FB52
:1003EC000CF3AB4207D9ED1900F1FF386FD2AB42D9
:1003FC006DD902383D44EB1A40EA01418FE7C1F157
:10040C00200722FA07F88B4005FA01F448EA0303A7
:10041C0020FA07FE4FEA134CFD404EEA040EB5FBE2
:10042C00FCF94FEA1E440CFB19551FFA83F844EAF9
:10043C00054509FB08F4AC4202FA01F200FA01FA94
:10044C0008D9ED1809F1FF3043D2AC4241D9A9F1DA
:10045C0002091D442D1B1FFA8EFEB5FBFCF00CFB94
:10046C0010554EEA054400FB08F8A04507D9E418DE
:10047C0000F1FF3529D2A04527D902381C4440EAA7
:10048C000940A4EB0804A0FB02894C45C6464D4626
:10049C0015D312D056B1BAEB0E0364EB050404FA73
:1004AC0007F7CB401F43CC40376074600021BDE898
:1004BC00F0871846F8E69046E0E6C245EAD2B8EB7B
:1004CC00020E69EB03050138E4E72846D7E74046FE
:1004DC0091E78146BEE7014678E702383C4445E7A0
:1004EC00084608E7A8F102083D442BE7704700BF17
:1004FC0080B582B000AF0023FB7101220E490F487A
:10050C0009F034FA0346FB71FB79002B0FD10B4B2E
:10051C00DB683B603B68B3F5FA1F08D81521032054
:10052C0000F0D6F900F00CF8044809F0C8FD00BF43
:10053C000837BD4680BD00BFD8AA00080081002046
:10054C0080B584B000AF0023BB600123FB732E4A3F
:10055C002E4B1A602E4B2F4A1A604EE0BB1D4FF4E7
:10056C00004229492C4809F0CDFB03467B717B796D
:10057C00DBB2002B02D0012000F002FCFB881A46F3
:10058C00264B1A60254B1B68B3F5004F01D2002394
:10059C00FB7300F0C1FD214B1B68BB6021E0BB6805
:1005AC001F4A13601A4B1A681D4B1B68D21A1B4B3F
:1005BC001B68D018154B1A68BB68D21A174B1B68EE
:1005CC0013441B68194600F02DF80346002B00D08D
:1005DC00FEE7BB68032B01D80423BB60BB68043B5C
:1005EC00BB60BB68002BDAD100F0B8FD084B1A6871
:1005FC000A4B1B681344064A1360FB7B012BADD0DE
:10060C0000BF1037BD4680BDB0000020B880002070
:10061C000000002000C0000800810020B4800020F1
:10062C00B080002090B585B000AF786039600823A9
:10063C00FB603B684FF000041A46234679680220A1
:10064C0000F016FD0346FB60FB6818461437BD46E8
:10065C0090BD000080B584B000AF00F01FFB00F02F
:10066C007FF900F0E9F904F03DFB09F0AFFD00F073
:10067C00C3F800F079FBF8600023BB6040F2DC5358
:10068C007B6009F0C9FD344B1B78032B5DD801A2AC
:10069C0052F823F0B1060008FF0600081D070008F9
:1006AC004907000800F060FBB860BA68FB68D21A12
:1006BC007B689A424BD94FF4FA11284800F0D2F8D3
:1006CC003860264B1A68264B1340264A934202D1B7
:1006DC0000F078F83BE000224FF40041224801F092
:1006EC0073F94FF4167000F04BFB052000F042F844
:1006FC00F7E700221D491E4809F0F2F80346002BCB
:10070C0027D101224FF40041174801F05DF920E098
:10071C00FFF7EEFE00224FF40041134801F054F9AC
:10072C004FF4167000F02CFB01224FF400410E48E0
:10073C0001F04AF9032000F01DF8F1E700224FF414
:10074C000041094801F040F904E000BF99E700BFFF
:10075C0097E700BF95E700BFF480002000C00008B9
:10076C000000FE2F00000220000C024030B20020DE
:10077C00D4A1002080B584B000AF0346FB710023E8
:10078C00FB7314E001224FF400410D4801F01CF9F9
:10079C00C82000F0F5FA00224FF40041084801F09F
:1007AC0013F9C82000F0ECFAFB7B0133FB73FA7BE6
:1007BC00FB799A42E6D300BF1037BD4680BD00BF1F
:1007CC00000C024080B584B000AF094B1B68FB6085
:1007DC00FB683B603B6883F30888064B1B68BB6077
:1007EC00BB687B607B68984700BF1037BD4680BDF7
:1007FC0000C0000804C0000880B500AF064B074AD3
:10080C001A60054800F0EDFB0346002B01D000F008
:10081C00A7F900BF80BD00BF64A1002000300240DA
:10082C0080B485B000AF78607B681B680B4A93423C
:10083C000DD10023FB600A4A094B1B6B43F4805318
:10084C001363074B1B6B03F48053FB60FB6800BF07
:10085C001437BD465DF8047B704700BF0030024082
:10086C000038024080B588B000AF786039607B6892
:10087C007B613B689B083B610023FB61FF23BB61F1
:10088C00124B1B68114A1268926842F001029A607E
:10089C000023FB6110E0FB699B007A6913441B6821
:1008AC00FB6007F10C0301221946084800F0B5FB68
:1008BC00B861FB690133FB61FA693B699A42EAD37F
:1008CC00BB6918462037BD4680BD00BF64A100201F
:1008DC0080B58AB000AF03460A46FB711346BB7164
:1008EC00BB79172B01D9042335E0FB79FF2B02D000
:1008FC00FB79072B2ED8FB79FF2B02D101233B610F
:10090C0012E0FB79C3F1180387F82730BA7997F80E
:10091C0027309A4202D997F82730BB7100233B61EC
:10092C00FB79BB61BB79FB6103237B6100F0F4FBBA
:10093C0002233B6207F10C0207F110031146184623
:10094C0000F058FD034687F8263000F007FC97F8B6
:10095C00263000E0042318462837BD4680BD000031
:10096C0080B594B000AF07F1200330220021184667
:10097C0009F0D1FF07F10C0300221A605A609A604B
:10098C00DA601A610023BB60294A294B1B6C43F0C7
:10099C0080531364264B1B6C03F08053BB60BB6805
:1009AC0000237B60234A234B1B6823F4404343F40E
:1009BC00804313601F4B1B6803F440437B607B68D0
:1009CC0001233B624FF480337B620223BB634FF401
:1009DC008003FB6319233B644FF4A8737B640223ED
:1009EC00BB640723FB6407F12003184602F08EFD5D
:1009FC000346002B01D000F0B3F80F23FB60022359
:100A0C003B6180237B614FF48053BB610023FB610E
:100A1C0007F10C030221184602F0F0FF0346002BED
:100A2C0001D000F09DF800BF5037BD4680BD00BF1F
:100A3C00003802400070004080B58AB000AF07F16A
:100A4C00140300221A605A609A60DA601A6100235B
:100A5C003B613F4A3E4B1B6B43F0800313633C4BA3
:100A6C001B6B03F080033B613B690023FB60384A3E
:100A7C00374B1B6B43F008031363354B1B6B03F0B5
:100A8C000803FB60FB680023BB60314A304B1B6BD7
:100A9C0043F0010313632E4B1B6B03F00103BB608C
:100AAC00BB6800237B602A4A294B1B6B43F4807381
:100ABC001363274B1B6B03F480737B607B680023F1
:100ACC003B60234A224B1B6B43F002031363204B06
:100ADC001B6B03F002033B603B6800224FF40041A8
:100AEC001C4800F071FF012201211B4800F06CFF33
:100AFC0001224FF48061194800F066FF4FF4004367
:100B0C007B610123BB610023FB6100233B6207F186
:100B1C00140319460F4800F0ADFD01237B6101233E
:100B2C00BB610023FB6100233B6207F114031946F0
:100B3C00094800F09FFD4FF480637B6107F11403BB
:100B4C001946064800F096FD00BF2837BD4680BD0B
:100B5C0000380240000C0240002002400004024019
:100B6C0080B400AF72B6FEE780B483B000AF002350
:100B7C007B60104A0F4B5B6C43F4804353640D4B0A
:100B8C005B6C03F480437B607B6800233B60094A09
:100B9C00084B1B6C43F080531364064B1B6C03F027
:100BAC0080533B603B6800BF0C37BD465DF8047B4F
:100BBC00704700BF0038024080B400AFFEE780B43D
:100BCC0000AFFEE780B400AFFEE780B400AFFEE7F5
:100BDC0080B400AFFEE780B400AF00BFBD465DF847
:100BEC00047B704780B400AF00BFBD465DF8047B4A
:100BFC00704780B400AF00BFBD465DF8047B704702
:100C0C0080B500AF00F09CF800BF80BD80B500AF90
:100C1C00024801F05DF900BF80BD00BF74D6002012
:100C2C0080B584B000AF7860114B1B68002B02D1EB
:100C3C000F4B104A1A600E4B1B68FB600C4B1A686A
:100C4C007B6813446A46934207D909F01FFE02469B
:100C5C000C2313604FF0FF3306E0054B1A687B68DA
:100C6C001344034A1360FB6818461037BD4680BD19
:100C7C00BC8000207CD9002080B400AF064A064B13
:100C8C00D3F8883043F47003C2F8883000BFBD46F7
:100C9C005DF8047B704700BF00ED00E080B500AF4D
:100CAC000E4A0E4B1B6843F4007313600B4A0B4B3C
:100CBC001B6843F480631360084A084B1B6843F4B9
:100CCC0080731360032000F04BF90F2000F008F83C
:100CDC00FFF74AFF0023184680BD00BF003C0240CE
:100CEC0080B582B000AF7860124B1A68124B1B783B
:100CFC0019464FF47A73B3FBF1F3B2FBF3F31846D6
:100D0C0000F063F90346002B01D001230EE07B6851
:100D1C000F2B0AD8002279684FF0FF3000F02BF926
:100D2C00064A7B681360002300E00123184608374D
:100D3C00BD4680BD040000200C00002008000020EF
:100D4C0080B400AF064B1B781A46064B1B68134445
:100D5C00044A136000BFBD465DF8047B704700BFBA
:100D6C000C0000200CB2002080B400AF034B1B68B9
:100D7C001846BD465DF8047B704700BF0CB20020DE
:100D8C0080B584B000AF7860FFF7EEFFB8607B6889
:100D9C00FB60FB68B3F1FF3F05D0094B1B781A468B
:100DAC00FB681344FB6000BFFFF7DEFF0246BB6825
:100DBC00D21AFB689A42F7D300BF1037BD4680BDEC
:100DCC000C00002080B485B000AF78607B6803F025
:100DDC000703FB600C4BDB68BB60BA684FF6FF0384
:100DEC001340BB60FB681A02BB68134343F0BF633C
:100DFC0043F40033BB60044ABB68D36000BF1437B4
:100E0C00BD465DF8047B704700ED00E080B400AF98
:100E1C00044BDB681B0A03F007031846BD465DF85C
:100E2C00047B704700ED00E080B483B000AF034654
:100E3C00FB7197F90730002B0BDB094997F9073049
:100E4C005B09FA7902F01F02012000FA02F241F864
:100E5C00232000BF0C37BD465DF8047B704700BFF4
:100E6C0000E100E080B483B000AF03463960FB7151
:100E7C0097F90730002B0ADB0D4997F907303A68D0
:100E8C00D2B21201D2B20B4483F800230AE0094912
:100E9C00FB7903F00F03043B3A68D2B21201D2B2D1
:100EAC000B441A7600BF0C37BD465DF8047B7047C7
:100EBC0000E100E000ED00E080B489B000AFF86024
:100ECC00B9607A60FB6803F00703FB61FB69C3F14F
:100EDC000703042B28BF0423BB61FB690433062BD7
:100EEC0002D9FB69033B00E000237B610122BB6953
:100EFC0002FA03F35A1EBB681A407B699A4001211F
:100F0C007B6901FA03F3591E7B680B4013431846A7
:100F1C002437BD465DF8047B7047000080B582B075
:100F2C0000AF78607B68013BB3F1807F01D3012374
:100F3C000FE00A4A7B68013B53600F214FF0FF30F2
:100F4C00FFF790FF054B00229A60044B07221A60B2
:100F5C00002318460837BD4680BD00BF10E000E0F6
:100F6C0080B582B000AF78607868FFF72BFF00BFC8
:100F7C000837BD4680BD80B586B000AF0346B9606A
:100F8C007A60FB7300237B61FFF740FF78617A681E
:100F9C00B9687869FFF790FF024697F90F30114650
:100FAC001846FFF75FFF00BF1837BD4680BD80B500
:100FBC0082B000AF0346FB7197F907301846FFF774
:100FCC0033FF00BF0837BD4680BD80B582B000AF8F
:100FDC0078607868FFF7A2FF034618460837BD46CD
:100FEC0080BD80B582B000AF78607B68002B01D1EA
:100FFC0001230EE07B685B79DBB2002B05D17B68AB
:10100C0000221A717868FFF70BFC7B6801225A7179
:10101C00002318460837BD4680BD80B487B000AFAA
:10102C00F860B9607A6000233B61FB6802225A7158
:10103C0000237B610AE0FB681B687A699200B9683F
:10104C000A4412681A607B6901337B617A697B6898
:10105C009A42F0D3FB681B681B683B61FB6801225A
:10106C005A713B6918461C37BD465DF8047B7047C6
:10107C0080B586B000AFF860B960C7E900230123E2
:10108C00FB75234B1B7E012B01D102233BE0204B34
:10109C0001221A764CF2503000F070F80346FB75C2
:1010AC00FB7D002B2BD1FB68002B05D13B7819461F
:1010BC00B86800F017F916E0FB68012B05D13B88E6
:1010CC001946B86800F0EAF80DE0FB68022B05D170
:1010DC003B681946B86800F0BFF804E0D7E9002374
:1010EC00B86800F08BF84CF2503000F047F803462B
:1010FC00FB75084A074B1B6923F001031361044B72
:10110C0000221A76FB7D18461837BD4680BD00BFFD
:10111C0010B20020003C024080B483B000AF00232A
:10112C00FB710B4B1B69002B0BDA094B094A5A60FC
:10113C00074B094A5A60064B1B69002B01DA012345
:10114C00FB71FB7918460C37BD465DF8047B704784
:10115C00003C024023016745AB89EFCD80B400AF62
:10116C00054A054B1B6943F00043136100231846E5
:10117C00BD465DF8047B7047003C024080B584B0EE
:10118C0000AF78600023FB601A4B0022DA61FFF796
:10119C00EBFDF86010E07B68B3F1FF3F0CD07B688F
:1011AC00002B07D0FFF7E0FD0246FB68D21A7B68E4
:1011BC009A4201D9032319E00F4BDB6803F4803307
:1011CC00002BE8D10C4BDB6803F00103002B02D0A1
:1011DC00094B0122DA60084BDB6803F4F973002B2E
:1011EC0003D000F0A1F8012300E0002318461037CB
:1011FC00BD4680BD10B20020003C0240F0B484B06B
:10120C0000AFF860C7E90023124A124B1B6923F4A4
:10121C00407313610F4A0F4B1B6943F44073136106
:10122C000C4A0C4B1B6943F001031361FB683A68D1
:10123C001A60BFF36F8FFB6804331A4697E81800E7
:10124C00250000262B46136000BF1037BD46F0BCAE
:10125C00704700BF003C024080B483B000AF7860A0
:10126C0039600D4A0C4B1B6923F4407313610A4A15
:10127C00094B1B6943F400731361074A064B1B6946
:10128C0043F0010313617B683A681A6000BF0C37A6
:10129C00BD465DF8047B7047003C024080B483B0CF
:1012AC0000AF78600B467B800D4A0D4B1B6923F415
:1012BC00407313610A4A0A4B1B6943F48073136130
:1012CC00074A074B1B6943F0010313617B687A885B
:1012DC001A8000BF0C37BD465DF8047B704700BF19
:1012EC00003C024080B483B000AF78600B46FB70CA
:1012FC000C4A0C4B1B6923F440731361094A094BCC
:10130C001B691361074A074B1B6943F00103136107
:10131C007B68FA781A7000BF0C37BD465DF8047B09
:10132C00704700BF003C024080B400AF2F4BDB681D
:10133C0003F01003002B08D02D4BDB6943F0100396
:10134C002B4AD361294B1022DA60284BDB6803F05F
:10135C002003002B08D0264BDB6943F00803244AFA
:10136C00D361224B2022DA60204BDB6803F0400370
:10137C00002B08D01E4BDB6943F004031C4AD361DD
:10138C001A4B4022DA60194BDB6803F08003002B08
:10139C0008D0174BDB6943F00203154AD361134B9A
:1013AC008022DA60114BDB6803F48073002B09D0C8
:1013BC000F4BDB6943F001030D4AD3610B4B4FF428
:1013CC008072DA60094BDB6803F00203002B08D053
:1013DC00074BDB6943F02003054AD361034B022220
:1013EC00DA6000BFBD465DF8047B7047003C0240EC
:1013FC0010B2002080B584B000AF78603960012352
:10140C00FB730023BB60324B1B7E012B01D10223EB
:10141C005AE02F4B01221A764CF25030FFF7AEFEF9
:10142C000346FB73FB7B002B4AD13B684FF0FF322A
:10143C001A607B681B68012B17D17B681B69DAB2B9
:10144C007B685B681946104600F046F84CF2503049
:10145C00FFF794FE0346FB731E4A1E4B1B6923F4D5
:10146C00004323F00403136128E07B689B68BB6096
:10147C001CE07B681B69DBB21946B86800F066F8A3
:10148C004CF25030FFF77AFE0346FB73114A114BB6
:10149C001B6923F0FA031361FB7B002B03D03B6821
:1014AC00BA681A600AE0BB680133BB607B68DA6813
:1014BC007B689B681A44BB689A42DAD800F094F8AF
:1014CC00034B00221A76FB7B18461037BD4680BDB5
:1014DC0010B20020003C024080B483B000AF034641
:1014EC003960FB71184A184B1B6923F44073136164
:1014FC003B68032B08D1144A134B1B6943F400437C
:10150C0043F0040313610FE03B68012B06D10E4A34
:10151C000D4B1B6943F00403136105E00A4A0A4BA7
:10152C001B6943F4004313610749074B1A69FB79A4
:10153C001B02134343F480330B6100BF0C37BD46D1
:10154C005DF8047B704700BF003C024080B485B05E
:10155C0000AF78600B46FB700023FB60FB78002B20
:10156C0002D10023FB6010E0FB78012B03D14FF478
:10157C008073FB6009E0FB78022B03D14FF40073FE
:10158C00FB6002E04FF44073FB607B680B2B02D9CD
:10159C007B6804337B60134A124B1B6923F4407342
:1015AC00136110490F4B1A69FB6813430B610D4A09
:1015BC000C4B1B6923F0F80313610A49094B1A6998
:1015CC007B68DB00134343F002030B61054A054BB8
:1015DC001B6943F48033136100BF1437BD465DF8BB
:1015EC00047B7047003C024080B400AF204B1B686A
:1015FC0003F40073002B17D01D4A1D4B1B6823F4FA
:10160C00007313601A4A1A4B1B6843F4006313608F
:10161C00174A174B1B6823F400631360144A144BCE
:10162C001B6843F400731360114B1B6803F4806355
:10163C00002B17D00E4A0E4B1B6823F480631360EB
:10164C000B4A0B4B1B6843F480531360084A084B3E
:10165C001B6823F480531360054A054B1B6843F445
:10166C008063136000BFBD465DF8047B704700BF0C
:10167C00003C024080B489B000AF78603960002330
:10168C007B6100233B610023BB610023FB6177E19D
:10169C000122FB6902FA03F37B613B681A687B69E0
:1016AC0013403B613A697B699A4240F066813B6822
:1016BC005B6803F00303012B05D03B685B6803F008
:1016CC000303022B30D17B689B68BB61FB695B0019
:1016DC00032202FA03F3DB43BA691340BB613B6894
:1016EC00DA68FB695B0002FA03F3BA691343BB6166
:1016FC007B68BA699A607B685B68BB610122FB6995
:10170C0002FA03F3DB43BA691340BB613B685B68C5
:10171C001B0903F00102FB6902FA03F3BA691343D4
:10172C00BB617B68BA695A603B685B6803F0030372
:10173C00032B17D07B68DB68BB61FB695B00032262
:10174C0002FA03F3DB43BA691340BB613B689A6846
:10175C00FB695B0002FA03F3BA691343BB617B6854
:10176C00BA69DA603B685B6803F00303022B23D190
:10177C00FB69DA087B68083253F82230BB61FB69DD
:10178C0003F007039B000F2202FA03F3DB43BA6951
:10179C001340BB613B681A69FB6903F007039B00AC
:1017AC0002FA03F3BA691343BB61FB69DA087B687D
:1017BC000832B96943F822107B681B68BB61FB696E
:1017CC005B00032202FA03F3DB43BA691340BB61EB
:1017DC003B685B6803F00302FB695B0002FA03F3EE
:1017EC00BA691343BB617B68BA691A603B685B6872
:1017FC0003F44033002B00F0C0800023FB60654AEB
:10180C00644B5B6C43F480435364624B5B6C03F43A
:10181C008043FB60FB68604AFB699B08023352F80B
:10182C002330BB61FB6903F003039B000F2202FA18
:10183C0003F3DB43BA691340BB617B68574A93429D
:10184C0037D07B68564A934231D07B68554A9342D5
:10185C002BD07B68544A934225D07B68534A9342E1
:10186C001FD07B68524A934219D07B68514A9342ED
:10187C0013D07B68504A93420DD07B684F4A9342F9
:10188C0007D07B684E4A934201D1092312E00A2308
:10189C0010E008230EE007230CE006230AE00523E2
:1018AC0008E0042306E0032304E0022302E0012302
:1018BC0000E00023FA6902F0030292009340BA6937
:1018CC001343BB613449FB699B080233BA6941F885
:1018DC0023203C4B1B68BB613B69DB43BA6913405B
:1018EC00BB613B685B6803F48033002B03D0BA699F
:1018FC003B691343BB61334ABB691360314B5B6873
:10190C00BB613B69DB43BA691340BB613B685B68F5
:10191C0003F40033002B03D0BA693B691343BB615A
:10192C00284ABB695360274B9B68BB613B69DB430F
:10193C00BA691340BB613B685B6803F48013002BEE
:10194C0003D0BA693B691343BB611E4ABB69936000
:10195C001C4BDB68BB613B69DB43BA691340BB6161
:10196C003B685B6803F40013002B03D0BA693B6936
:10197C001343BB61134ABB69D360FB690133FB6141
:10198C00FB690F2B7FF684AE00BF2437BD465DF894
:10199C00047B7047003802400038014000000240D0
:1019AC000004024000080240000C024000100240FB
:1019BC000014024000180240001C024000200240AB
:1019CC0000240240003C014080B483B000AF78603A
:1019DC000B467B8013467B707B78002B03D07A8878
:1019EC007B689A6103E07B881A047B689A6100BF6C
:1019FC000C37BD465DF8047B7047F0B58FB00AAF6D
:101A0C0078607B68002B01D1012354E07B681B6854
:101A1C00FB607B6893F8F932DBB2002B06D17B6854
:101A2C00002283F8F822786808F02EFC7B680322E9
:101A3C0083F8F922FB68DB6B03F48073002B02D173
:101A4C007B6800221A617B681B68184602F0E4F977
:101A5C007B681B683B607E686D4606F110040FCCFA
:101A6C000FC50FCC0FC594E8030085E80300331DA8
:101A7C000ECB386802F05EF97B681B6801211846B2
:101A8C0002F0DBF97B681B683B607E686D4606F1F3
:101A9C0010040FCC0FC50FCC0FC594E8030085E8DC
:101AAC000300331D0ECB386802F040FB7B6801222B
:101ABC0083F8F922002318461437BD46F0BD90B5C3
:101ACC0089B004AF7860084611461A460346FB708D
:101ADC000B46BB7013467B707B6893F8F832012B76
:101AEC0001D1022376E07B68012283F8F822FB788F
:101AFC007A682C2101FB03F313443D3300221A7046
:101B0C00FB787A682C2101FB03F3134438337A7881
:101B1C001A70FB787A682C2101FB03F313444033D1
:101B2C003A8D1A80FB787A682C2101FB03F313445D
:101B3C003933FA781A70FB787A682C2101FB03F39D
:101B4C0013443F3397F824201A70FB78BA7802F0CC
:101B5C007F02D0B27A682C2101FB03F313443A3391
:101B6C0002461A7097F90230002B09DAFB787A6872
:101B7C002C2101FB03F313443B3301221A7008E0C0
:101B8C00FB787A682C2101FB03F313443B330022CE
:101B9C001A70FB787A682C2101FB03F313443C3355
:101BAC0097F820201A707B6818687C78BA78F978D6
:101BBC003B8D029397F82430019397F820300093D3
:101BCC00234602F037FC0346FB737B68002283F844
:101BDC00F822FB7B18461437BD4690BD80B584B007
:101BEC0000AF78600B46FB700023FB737B6893F8A7
:101BFC00F832012B01D102230FE07B68012283F81C
:101C0C00F8227B681B68FA781146184602F081FEB0
:101C1C007B68002283F8F822FB7B18461037BD4600
:101C2C0080BD000080B582B000AF786008461146D8
:101C3C001A460346FB700B46BB7013467B70FB7851
:101C4C007A682C2101FB03F313443B33BA781A70E6
:101C5C00FB787A682C2101FB03F313443F337A7829
:101C6C001A703B7C002B12D1FB787A682C2101FB7B
:101C7C0003F31344423303221A70FB787A682C2145
:101C8C0001FB03F313443D333A7F1A7008E0FB78F1
:101C9C007A682C2101FB03F31344423302221A709D
:101CAC007B78032B00F2C68001A252F823F000BF10
:101CBC00CD1C00082D1E0008311D0008AF1D0008AA
:101CCC003B7C012B40F0B880BB78002B40F0B480FB
:101CDC003B8B002B08D1FB787A682C2101FB03F39A
:101CEC001344553301221A70FB787A682C2101FBBE
:101CFC0003F3134455331B78002B09D1FB787A6816
:101D0C002C2101FB03F31344423300221A7093E09D
:101D1C00FB787A682C2101FB03F313444233022233
:101D2C001A7089E0BB78002B1DD1FB787A682C21C6
:101D3C0001FB03F3134455331B78002B09D1FB78BB
:101D4C007A682C2101FB03F31344423300221A70EE
:101D5C0073E0FB787A682C2101FB03F313444233C4
:101D6C0002221A7069E0FB787A682C2101FB03F3DC
:101D7C00134454331B78002B09D1FB787A682C213F
:101D8C0001FB03F31344423300221A7055E0FB7835
:101D9C007A682C2101FB03F31344423302221A709C
:101DAC004BE0BB78002B1DD1FB787A682C2101FB12
:101DBC0003F3134455331B78002B09D1FB787A6855
:101DCC002C2101FB03F31344423300221A7034E03C
:101DDC00FB787A682C2101FB03F313444233022273
:101DEC001A702AE0FB787A682C2101FB03F3134468
:101DFC0054331B78002B09D1FB787A682C2101FB1A
:101E0C0003F31344423300221A7016E0FB787A680D
:101E1C002C2101FB03F31344423302221A700CE011
:101E2C00FB787A682C2101FB03F313444233002224
:101E3C001A7002E000BF00E000BFFB787A682C212A
:101E4C0001FB03F3134444337A691A60FB783A8B31
:101E5C0079682C2000FB03F30B444C331A60FB789D
:101E6C007A682C2101FB03F31344603300221A70AF
:101E7C00FB787A682C2101FB03F3134450330022C6
:101E8C001A60FB787A682C2101FB03F31344393375
:101E9C00FA781A70FB787A682C2101FB03F313444F
:101EAC00613300221A707B681868FB782C2202FBC5
:101EBC0003F338337A68D1187B681B69DBB21A4696
:101ECC0002F0CEFB034618460837BD4680BD00BF66
:101EDC0080B586B000AF78607B681B683B613B695E
:101EEC00FB607B681B68184602F0E0F80346012B88
:101EFC0040F0F6807B681B68184602F0C4F8034675
:101F0C00002B00F0EC807B681B68184602F0BBF8D5
:101F1C00034603F40013B3F5001F04D17B681B6860
:101F2C004FF400125A617B681B68184602F0ABF83C
:101F3C00034603F48013B3F5801F04D17B681B6840
:101F4C004FF480125A617B681B68184602F09BF8AC
:101F5C00034603F08063B3F1806F04D17B681B6888
:101F6C004FF080625A617B681B68184602F08BF850
:101F7C00034603F00203022B03D17B681B68022289
:101F8C005A617B681B68184602F07DF8034603F023
:101F9C000053B3F1005F1CD17B681B684FF00052FB
:101FAC005A61FB6803F588631B6803F00103002B7F
:101FBC000FD11021386901F08DFF386901F0AEFFA7
:101FCC007B681B680121184602F068F9786808F0F4
:101FDC00D9F97B681B68184602F055F8034603F0E4
:101FEC008073B3F1807F02D1786801F01CFA7B68B2
:101FFC001B68184602F047F8034603F00803082B49
:10200C0006D1786808F0A2F97B681B6808225A612F
:10201C007B681B68184602F036F8034603F0100381
:10202C00102B01D1012300E00023002B12D07B6880
:10203C001B687A681268926922F010029A617868BB
:10204C0001F020F97B681B687A681268926942F08B
:10205C0010029A617B681B68184602F014F803465C
:10206C0003F00073B3F1007F3AD17B681B6818460C
:10207C0002F03EFCB86000237B6125E07B6903F035
:10208C000F03BA6822FA03F303F00103002B18D0F4
:10209C007B695A01FB68134403F5A0631B6803F4C6
:1020AC000043B3F5004F06D17B69DBB21946786863
:1020BC0000F0ABF805E07B69DBB21946786800F0FC
:1020CC00D4FC7B6901337B617B689A687B699A429B
:1020DC00D4D87B681B684FF000725A6100E000BFD7
:1020EC001837BD4680BD80B582B000AF78607B6884
:1020FC0093F8F832012B01D1022313E07B68012203
:10210C0083F8F8227B681B680121184602F02EF92F
:10211C007B681B68184601F06EFE7B68002283F812
:10212C00F822002318460837BD4680BD80B582B022
:10213C0000AF78607B6893F8F832012B01D1022351
:10214C000DE07B68012283F8F8227B681B68184637
:10215C0002F042FD7B68002283F8F8220023184627
:10216C000837BD4680BD80B582B000AF78607B6813
:10217C001B68184602F0CEF8034618460837BD46D1
:10218C0080BD80B483B000AF78600B46FB70FB78E9
:10219C007A682C2101FB03F3134460331B78184637
:1021AC000C37BD465DF8047B704780B483B000AF3C
:1021BC0078600B46FB70FB787A682C2101FB03F3EB
:1021CC00134450331B6818460C37BD465DF8047B2E
:1021DC00704780B582B000AF78607B681B6818468A
:1021EC0002F016F9034618460837BD4680BD80B587
:1021FC0082B000AF78607B681B68184602F0F1F87B
:10220C00034618460837BD4680BD80B586B000AF82
:10221C0078600B46FB707B681B687B617B693B615C
:10222C00FB78FB60FB685A013B69134403F5A06320
:10223C009B6803F00403042B1AD1FB685A013B6919
:10224C00134403F5A0631A4604239360FB685A01F8
:10225C003B69134403F5A0631946FB685A013B69BB
:10226C00134403F5A063DB6843F00203CB6005E184
:10227C00FB685A013B69134403F5A0639B6803F4A4
:10228C008073B3F5807F2CD1FB685A013B691344F2
:10229C0003F5A0631A464FF4807393607A68FB6869
:1022AC002C2101FB03F31344613307221A70FB68E2
:1022BC005A013B69134403F5A0631946FB685A01A4
:1022CC003B69134403F5A063DB6843F00203CB6066
:1022DC007B681B68FA68D2B21146184602F019FBEB
:1022EC00CCE0FB685A013B69134403F5A0639B687F
:1022FC0003F02003202B09D1FB685A013B691344DE
:10230C0003F5A0631A4620239360B7E0FB685A01DB
:10231C003B69134403F5A0639B6803F00803082B87
:10232C0034D1FB685A013B69134403F5A063194689
:10233C00FB685A013B69134403F5A063DB6843F067
:10234C000203CB607A68FB682C2101FB03F3134476
:10235C00613305221A70FB685A013B69134403F57B
:10236C00A0631A4610239360FB685A013B6913441F
:10237C0003F5A0631A46082393607B681B68FA6810
:10238C00D2B21146184602F0C4FA77E0FB685A0143
:10239C003B69134403F5A0639B6803F48063B3F5B6
:1023AC00806F35D1FB685A013B69134403F5A06378
:1023BC001946FB685A013B69134403F5A063DB68BB
:1023CC0043F00203CB607A68FB682C2101FB03F31A
:1023DC001344613308221A70FB685A013B69134499
:1023EC0003F5A0631A4610239360FB685A013B69FE
:1023FC00134403F5A0631A464FF4806393607B6823
:10240C001B68FA68D2B21146184602F082FA35E01F
:10241C00FB685A013B69134403F5A0639B6803F006
:10242C008003802B2AD1FB685A013B69134403F5C6
:10243C00A0631946FB685A013B69134403F5A0637A
:10244C00DB6843F00203CB607A68FB682C2101FB4C
:10245C0003F31344613306221A707B681B68FA6815
:10246C00D2B21146184602F054FAFB685A013B6985
:10247C00134403F5A0631A4680239360FB685A014A
:10248C003B69134403F5A0639B6803F40073B3F535
:10249C00007F23D1FB685A013B69134403F5A06309
:1024AC001946FB685A013B69134403F5A063DB68CA
:1024BC0043F00203CB607B681B68FA68D2B211460A
:1024CC00184602F026FAFB685A013B69134403F5DF
:1024DC00A0631A464FF400739360C2E2FB685A0182
:1024EC003B69134403F5A0639B6803F00103012BC4
:1024FC0040F01F817B681B69002B19D07A68FB6840
:10250C002C2101FB03F3134448331A68FB6859016F
:10251C003B690B4403F5A0631B69C3F31203D21A86
:10252C007968FB682C2000FB03F30B4450331A60D2
:10253C007A68FB682C2101FB03F3134461330122FD
:10254C001A707A68FB682C2101FB03F313445C338B
:10255C0000221A60FB685A013B69134403F5A0631F
:10256C001A46012393607A68FB682C2101FB03F364
:10257C0013443F331B78002B09D07A68FB682C215D
:10258C0001FB03F313443F331B78022B22D1FB686E
:10259C005A013B69134403F5A0631946FB685A01C1
:1025AC003B69134403F5A063DB6843F00203CB6083
:1025BC007B681B68FA68D2B21146184602F0A9F97A
:1025CC00FB685A013B69134403F5A0631A461023B8
:1025DC00936069E07A68FB682C2101FB03F31344D8
:1025EC003F331B78032B29D1FB685A013B691344F9
:1025FC0003F5A0631946FB685A013B69134403F5C4
:10260C00A0631B6843F000530B607A68FB682C21B5
:10261C0001FB03F31344603301221A70FB68D8B238
:10262C007A68FB682C2101FB03F3134460331B789D
:10263C001A460146786807F0B3FE35E07A68FB6805
:10264C002C2101FB03F313443F331B78012B2BD1BB
:10265C007A68FB682C2101FB03F3134460330122DD
:10266C001A707A68FB682C2101FB03F31344543372
:10267C001B7883F00103D8B27A68FB682C2101FB2C
:10268C0003F31344543302461A70FB68D8B27A68C9
:10269C00FB682C2101FB03F3134460331B781A46AF
:1026AC000146786807F07CFE7B681B69012B2BD1F7
:1026BC007A68FB682C2101FB03F3134448331B6835
:1026CC007968FA682C2000FB02F20A444032128826
:1026DC00B3FBF2F303F00103002B00F0C2817A6824
:1026EC00FB682C2101FB03F3134454331B7883F058
:1026FC000103D8B27A68FB682C2101FB03F3134465
:10270C00543302461A70ACE17A68FB682C2101FB49
:10271C0003F3134454331B7883F00103D8B27A6863
:10272C00FB682C2101FB03F31344543302461A704B
:10273C0097E1FB685A013B69134403F5A0639B685E
:10274C0003F00203022B40F00881FB685A013B693D
:10275C00134403F5A0631946FB685A013B69134403
:10276C0003F5A063DB6823F00203CB607A68FB6897
:10277C002C2101FB03F3134461331B78012B09D18A
:10278C007A68FB682C2101FB03F3134460330122AC
:10279C001A70C9E07A68FB682C2101FB03F313441F
:1027AC0061331B78052B09D17A68FB682C2101FB5E
:1027BC0003F31344603305221A70B5E07A68FB68A2
:1027CC002C2101FB03F3134461331B78062B09D036
:1027DC007A68FB682C2101FB03F3134461331B78EB
:1027EC00082B50D17A68FB682C2101FB03F31344AE
:1027FC005C331B685A1C7968FB682C2000FB03F3C4
:10280C000B445C331A607A68FB682C2101FB03F3E0
:10281C0013445C331B68022B12D97A68FB682C2199
:10282C0001FB03F313445C3300221A607A68FB68E3
:10283C002C2101FB03F31344603304221A7073E060
:10284C007A68FB682C2101FB03F3134460330222EA
:10285C001A70FB685A013B69134403F5A0631B68AB
:10286C00BB60BB6823F08043BB60BB6843F0004394
:10287C00BB60FB685A013B69134403F5A0631A461D
:10288C00BB68136050E07A68FB682C2101FB03F3F2
:10289C00134461331B78032B22D17A68FB682C21FB
:1028AC0001FB03F31344603302221A70FB685A01D4
:1028BC003B69134403F5A0631B68BB60BB6823F042
:1028CC008043BB60BB6843F00043BB60FB685A01AC
:1028DC003B69134403F5A0631A46BB68136023E0FD
:1028EC007A68FB682C2101FB03F3134461331B78DA
:1028FC00072B19D17A68FB682C2101FB03F31344D5
:10290C005C331B685A1C7968FB682C2000FB03F3B2
:10291C000B445C331A607A68FB682C2101FB03F3CF
:10292C001344603304221A70FB685A013B69134448
:10293C0003F5A0631A4602239360FB68D8B27A6849
:10294C00FB682C2101FB03F3134460331B781A46FC
:10295C000146786807F024FD83E0FB685A013B6967
:10296C00134403F5A0639B6803F01003102B78D17C
:10297C007A68FB682C2101FB03F313443F331B786B
:10298C00032B22D17A68FB682C2101FB03F313443F
:10299C005C3300221A60FB685A013B69134403F54F
:1029AC00A0631946FB685A013B69134403F5A06305
:1029BC00DB6843F00203CB607B681B68FA68D2B219
:1029CC001146184601F0A5FF42E07A68FB682C21FD
:1029DC0001FB03F313443F331B78002B09D07A68B7
:1029EC00FB682C2101FB03F313443F331B78022BB0
:1029FC002ED17A68FB682C2101FB03F313445C3362
:102A0C0000221A607B681B69002B21D17A68FB6855
:102A1C002C2101FB03F31344613303221A70FB686E
:102A2C005A013B69134403F5A0631946FB685A012C
:102A3C003B69134403F5A063DB6843F00203CB60EE
:102A4C007B681B68FA68D2B21146184601F061FF28
:102A5C00FB685A013B69134403F5A0631A46102323
:102A6C00936000BF1837BD4680BD80B588B000AFFD
:102A7C0078600B46FB707B681B68FB61FB69BB6174
:102A8C00FB787B617B695A01BB69134403F5A06336
:102A9C009B6803F00403042B1AD17B695A01BB69B0
:102AAC00134403F5A0631A46042393607B695A010F
:102ABC00BB69134403F5A06319467B695A01BB69D2
:102ACC00134403F5A063DB6843F00203CB60D5E34A
:102ADC007B695A01BB69134403F5A0639B6803F03F
:102AEC002003202B3FD17B695A01BB69134403F5AA
:102AFC00A0631A46202393607A687B692C2101FB22
:102B0C0003F313443D331B78012B40F0B7837A68F1
:102B1C007B692C2101FB03F313443D3300221A7013
:102B2C007A687B692C2101FB03F313446033022286
:102B3C001A707B695A01BB69134403F5A0631946EB
:102B4C007B695A01BB69134403F5A063DB6843F04E
:102B5C000203CB607B681B687A69D2B211461846B7
:102B6C0001F0D7FE8AE37B695A01BB69134403F574
:102B7C00A0639B6803F40073B3F5007F23D17B69DA
:102B8C005A01BB69134403F5A06319467B695A01CA
:102B9C00BB69134403F5A063DB6843F00203CB600D
:102BAC007B681B687A69D2B21146184601F0B1FEF7
:102BBC007B695A01BB69134403F5A0631A464FF4B1
:102BCC00007393605AE37B695A01BB69134403F5A4
:102BDC00A0639B6803F00103012B51D17A687B69D8
:102BEC002C2101FB03F313445C3300221A607B6934
:102BFC005A01BB69134403F5A0639B6803F04003BF
:102C0C00402B11D17A687B692C2101FB03F313440F
:102C1C003D3301221A707B695A01BB69134403F5D9
:102C2C00A0631A46402393607B695A01BB69134425
:102C3C0003F5A06319467B695A01BB69134403F57C
:102C4C00A063DB6843F00203CB607B681B687A6986
:102C5C00D2B21146184601F05CFE7B695A01BB6981
:102C6C00134403F5A0631A46012393607A687B69C9
:102C7C002C2101FB03F31344613301221A70FDE292
:102C8C007B695A01BB69134403F5A0639B6803F08D
:102C9C004003402B3DD17A687B692C2101FB03F367
:102CAC001344613304221A707A687B692C2101FB6E
:102CBC0003F313443D3301221A707A687B692C218B
:102CCC0001FB03F313445C3300221A607B695A0145
:102CDC00BB69134403F5A06319467B695A01BB69B0
:102CEC00134403F5A063DB6843F00203CB607B68FD
:102CFC001B687A69D2B21146184601F00AFE7B694C
:102D0C005A01BB69134403F5A0631A464023936030
:102D1C00B4E27B695A01BB69134403F5A0639B6859
:102D2C0003F00803082B2BD17B695A01BB691344B0
:102D3C0003F5A0631A46082393607B695A01BB69AB
:102D4C00134403F5A06319467B695A01BB6913440C
:102D5C0003F5A063DB6843F00203CB607B681B6860
:102D6C007A69D2B21146184601F0D3FD7A687B69B4
:102D7C002C2101FB03F31344613305221A707DE20D
:102D8C007B695A01BB69134403F5A0639B6803F08C
:102D9C001003102B51D17A687B692C2101FB03F3B2
:102DAC0013445C3300221A607A687B692C2101FB86
:102DBC0003F31344613303221A707A687B692C2164
:102DCC0001FB03F313443D331B78002B12D17A68BB
:102DDC007B692C2101FB03F313443C331B78002B40
:102DEC0008D17A687B692C2101FB03F313443D3332
:102DFC0001221A707B695A01BB69134403F5A06365
:102E0C0019467B695A01BB69134403F5A063DB685F
:102E1C0043F00203CB607B681B687A69D2B211461F
:102E2C00184601F076FD7B695A01BB69134403F522
:102E3C00A0631A461023936020E27B695A01BB6998
:102E4C00134403F5A0639B6803F08003802B76D1B9
:102E5C007B681B69002B22D17A687B692C2101FBD2
:102E6C0003F31344613306221A707B695A01BB6960
:102E7C00134403F5A06319467B695A01BB691344DB
:102E8C0003F5A063DB6843F00203CB607B681B682F
:102E9C007A69D2B21146184601F03BFD45E07A68DA
:102EAC007B692C2101FB03F313445C331B685A1C14
:102EBC0079687B692C2000FB03F30B445C331A60AC
:102ECC007A687B692C2101FB03F313445C331B6888
:102EDC00022B21D97A687B692C2101FB03F3134463
:102EEC005C3300221A607A687B692C2101FB03F3A6
:102EFC001344603304221A707B69D8B27A687B69F8
:102F0C002C2101FB03F3134460331B781A46014652
:102F1C00786807F045FA08E07A687B692C2101FB98
:102F2C0003F31344603302221A707B695A01BB69A4
:102F3C00134403F5A0631A46802393609EE17B69DA
:102F4C005A01BB69134403F5A0639B6803F48063C7
:102F5C00B3F5806F35D17B695A01BB69134403F516
:102F6C00A06319467B695A01BB69134403F5A0633E
:102F7C00DB6843F00203CB607B681B687A69D2B2D2
:102F8C001146184601F0C5FC7B695A01BB69134414
:102F9C0003F5A0631A46102393607B695A01BB6941
:102FAC00134403F5A0631A464FF4806393607A6868
:102FBC007B692C2101FB03F31344613308221A7043
:102FCC005CE17B695A01BB69134403F5A0639B6800
:102FDC0003F00203022B40F051817B695A01BB695B
:102FEC00134403F5A06319467B695A01BB6913446A
:102FFC0003F5A063DB6823F00203CB607A687B697E
:10300C002C2101FB03F3134461331B78012B7DD17D
:10301C007A687B692C2101FB03F313446033012292
:10302C001A707A687B692C2101FB03F313443F333C
:10303C001B78022B0AD07A687B692C2101FB03F3E5
:10304C0013443F331B78032B40F000817B681B69D2
:10305C00002B13D17A687B692C2101FB03F31344F9
:10306C0055331B7883F00103D8B27A687B692C2125
:10307C0001FB03F31344553302461A707B681B693A
:10308C00012B40F0E3807A687B692C2101FB03F370
:10309C0013444C331B68002B00F0D8807A687B6992
:1030AC002C2101FB03F313444C331B6879687A69B8
:1030BC002C2000FB02F20A44403212881344013BDC
:1030CC0079687A692C2000FB02F20A44403212889B
:1030DC00B3FBF2F33B613B6903F00103002B00F0FF
:1030EC00B5807A687B692C2101FB03F313445533BB
:1030FC001B7883F00103D8B27A687B692C2101FB21
:10310C0003F31344553302461A709FE07A687B69C7
:10311C002C2101FB03F3134461331B78032B09D1DE
:10312C007A687B692C2101FB03F313446033022280
:10313C001A708BE07A687B692C2101FB03F3134432
:10314C0061331B78042B09D17A687B692C2101FB34
:10315C0003F31344603302221A7077E07A687B69B8
:10316C002C2101FB03F3134461331B78052B09D18C
:10317C007A687B692C2101FB03F31344603305222D
:10318C001A7063E07A687B692C2101FB03F313440A
:10319C0061331B78062B09D07A687B692C2101FBE3
:1031AC0003F3134461331B78082B4FD17A687B6986
:1031BC002C2101FB03F313445C331B685A1C796804
:1031CC007B692C2000FB03F30B445C331A607A6898
:1031DC007B692C2101FB03F313445C331B68022B2A
:1031EC0012D97A687B692C2101FB03F313445C33FD
:1031FC0000221A607A687B692C2101FB03F31344CB
:10320C00603304221A7021E07A687B692C2101FB5F
:10321C0003F31344603302221A707B695A01BB69B1
:10322C00134403F5A0631B68FB60FB6823F0804329
:10323C00FB60FB6843F00043FB607B695A01BB6990
:10324C00134403F5A0631A46FB6813607B695A01AB
:10325C00BB69134403F5A0631A46022393607B6990
:10326C00D8B27A687B692C2101FB03F313446033D9
:10327C001B781A460146786807F092F800BF203791
:10328C00BD4680BD80B58AB000AF78607B681B6896
:10329C007B627B6A3B627B681B681B6AFB61FB6918
:1032AC0003F00F03BB61FB695B0C03F00F037B6145
:1032BC00FB691B09C3F30A033B617B69022B03D037
:1032CC00052B00F0A980AAE03B69002B00F0A6803A
:1032DC007A68BB692C2101FB03F3134444331B684C
:1032EC00002B00F09B807A68BB692C2101FB03F357
:1032FC00134450331A683B691A447968BB692C2013
:10330C0000FB03F30B444C331B689A427AD87B685E
:10331C0018687A68BB692C2101FB03F3134444330E
:10332C001B683A6992B2194600F056FE7A68BB697E
:10333C002C2101FB03F3134444331A683B691A44F0
:10334C007968BB692C2000FB03F30B4444331A60EF
:10335C007A68BB692C2101FB03F3134450331A68C0
:10336C003B691A447968BB692C2000FB03F30B44BE
:10337C0050331A60BB695A013B6A134403F5A063CE
:10338C001B69DB0CC3F30903FB607A68BB692C2156
:10339C0001FB03F3134440331B881A463B699A42E2
:1033AC003CD1FB68002B39D0BB695A013B6A1344F2
:1033BC0003F5A0631B68BB60BB6823F08043BB6054
:1033CC00BB6843F00043BB60BB695A013B6A1344C2
:1033DC0003F5A0631A46BB6813607A68BB692C219D
:1033EC0001FB03F3134454331B7883F00103D8B26D
:1033FC007A68BB692C2101FB03F313445433024656
:10340C001A700BE07A68BB692C2101FB03F313449F
:10341C00603304221A7001E000BF00E000BF00BF5F
:10342C002837BD4680BD80B586B000AF78607B681C
:10343C001B687B617B693B613B6903F588631B6897
:10344C00FB603B6903F588631B68BB60BB6823F0BA
:10345C002E03BB60FB6803F00203022B0BD1FB684D
:10346C0003F00103012B02D1786806F07DFFBB68E5
:10347C0043F00203BB60FB6803F00803082B32D156
:10348C00BB6843F00803BB60FB6803F00403042B28
:10349C0026D17B689B69022B13D1FB6803F4C023F4
:1034AC00B3F5802F06D17B681B680221184600F00B
:1034BC00F5FE11E07B681B680121184600F0EEFE5A
:1034CC000AE07B68DB68012B06D13B6903F580635E
:1034DC001A464EF660235360786806F06FFF02E0E0
:1034EC00786806F079FFFB6803F02003202B03D1EA
:1034FC00BB6843F02003BB603B6903F588631A4645
:10350C00BB68136000BF1837BD4680BD80B586B060
:10351C0000AF78607B68002B01D1012364E27B68EB
:10352C001B6803F00103002B75D0A34B9B6803F0C1
:10353C000C03042B0CD0A04B9B6803F00C03082B42
:10354C0012D19D4B5B6803F48003B3F5800F0BD154
:10355C00994B1B6803F40033002B5BD07B685B68D2
:10356C00002B57D101233FE27B685B68B3F5803FAA
:10357C0006D1914A904B1B6843F4803313601DE0D5
:10358C007B685B68B3F5A02F0CD18B4A8A4B1B6808
:10359C0043F480231360884A874B1B6843F48033C1
:1035AC0013600BE0844A844B1B6823F48033136054
:1035BC00814A814B1B6823F4802313607B685B6812
:1035CC00002B13D0FDF7D0FB386108E0FDF7CCFBE6
:1035DC0002463B69D31A642B01D9032304E2764BD0
:1035EC001B6803F40033002BF0D014E0FDF7BCFB98
:1035FC00386108E0FDF7B8FB02463B69D31A642B2F
:10360C0001D90323F0E16C4B1B6803F40033002B4E
:10361C00F0D100E000BF7B681B6803F00203002BB5
:10362C0063D0654B9B6803F00C03002B0BD0624BF3
:10363C009B6803F00C03082B1CD15F4B5B6803F4F5
:10364C008003002B16D15C4B1B6803F00203002B8C
:10365C0005D07B68DB68012B01D00123C4E15649FE
:10366C00554B1B6823F0F8027B681B69DB00134386
:10367C000B603AE07B68DB68002B20D04F4B0122BB
:10368C001A60FDF771FB386108E0FDF76DFB02462F
:10369C003B69D31A022B01D90323A5E1464B1B68C6
:1036AC0003F00203002BF0D04349434B1B6823F07B
:1036BC00F8027B681B69DB0013430B6015E03F4B82
:1036CC0000221A60FDF750FB386108E0FDF74CFB57
:1036DC0002463B69D31A022B01D9032384E1364BF2
:1036EC001B6803F00203002BF0D17B681B6803F00E
:1036FC000803002B30D07B685B69002B16D0304B55
:10370C0001221A60FDF730FB386108E0FDF72CFB55
:10371C0002463B69D31A022B01D9032364E1264BE1
:10372C005B6F03F00203002BF0D015E0244B00225A
:10373C001A60FDF719FB386108E0FDF715FB02462E
:10374C003B69D31A022B01D903234DE11A4B5B6F52
:10375C0003F00203002BF0D17B681B6803F0040319
:10376C00002B00F0A0800023FB75134B1B6C03F0A7
:10377C008053002B0FD10023BB600F4A0E4B1B6CE8
:10378C0043F0805313640C4B1B6C03F08053BB60F1
:10379C00BB680123FB750B4B1B6803F48073002B78
:1037AC0021D1084A074B1B6843F480731360FDF763
:1037BC00DBFA386111E000BF0038024000004742DC
:1037CC00800E474200700040FDF7CEFA02463B697E
:1037DC00D31A022B01D9032306E1854B1B6803F492
:1037EC008073002BF0D07B689B68012B06D1814A3B
:1037FC00804B1B6F43F0010313671CE07B689B68D5
:10380C00052B0CD17B4A7B4B1B6F43F004031367D6
:10381C00784A784B1B6F43F0010313670BE0754A32
:10382C00744B1B6F23F001031367724A714B1B6FB0
:10383C0023F0040313677B689B68002B15D0FDF7FE
:10384C0093FA38610AE0FDF78FFA02463B69D31A06
:10385C0041F28832934201D90323C5E0654B1B6FBB
:10386C0003F00203002BEED014E0FDF77DFA386173
:10387C000AE0FDF779FA02463B69D31A41F2883225
:10388C00934201D90323AFE05A4B1B6F03F00203A1
:10389C00002BEED1FB7D012B05D1564A554B1B6CF1
:1038AC0023F0805313647B689B69002B00F09B8092
:1038BC00504B9B6803F00C03082B5CD07B689B6916
:1038CC00022B41D14C4B00221A60FDF74DFA3861A6
:1038DC0008E0FDF749FA02463B69D31A022B01D9DD
:1038EC00032381E0434B1B6803F00073002BF0D1E2
:1038FC0040497B68DA697B681B6A1A437B685B6AA0
:10390C009B011A437B689B6A5B08013B1B041A43AF
:10391C007B68DB6A1B0613434B60374B01221A6032
:10392C00FDF722FA386108E0FDF71EFA02463B6902
:10393C00D31A022B01D9032356E02E4B1B6803F03C
:10394C000073002BF0D04EE02B4B00221A60FDF7D9
:10395C000BFA386108E0FDF707FA02463B69D31A07
:10396C00022B01D903233FE0224B1B6803F00073A9
:10397C00002BF0D137E07B689B69012B01D101232F
:10398C0032E01C4B5B68FB607B689B69012B28D089
:10399C00FB6803F480027B68DB699A4221D1FB68E7
:1039AC0003F03F027B681B6A9A421AD1FA6847F609
:1039BC00C07313407A68526A9201934211D1FB682A
:1039CC0003F440327B689B6A5B08013B1B049A4200
:1039DC0007D1FB6803F070627B68DB6A1B069A42B6
:1039EC0001D0012300E0002318461837BD4680BDE6
:1039FC0000700040003802406000474280B584B03F
:103A0C0000AF786039607B68002B01D10123CCE0DA
:103A1C00684B1B6803F00F023B689A420CD2654B53
:103A2C003A68D2B21A70634B1B6803F00F023B6802
:103A3C009A4201D00123B8E07B681B6803F00203B3
:103A4C00002B20D07B681B6803F00403002B05D0EF
:103A5C00594A594B9B6843F4E05393607B681B684D
:103A6C0003F00803002B05D0534A534B9B6843F4D7
:103A7C00604393605049504B9B6823F0F0027B6885
:103A8C009B6813438B607B681B6803F00103002B5E
:103A9C0044D07B685B68012B07D1474B1B6803F450
:103AAC000033002B19D101237FE07B685B68022B6C
:103ABC0003D07B685B68032B07D13F4B1B6803F07B
:103ACC000073002B09D101236FE03B4B1B6803F003
:103ADC000203002B01D1012367E03749364B9B6869
:103AEC0023F003027B685B6813438B60FDF73CF9A2
:103AFC00F8600AE0FDF738F90246FB68D31A41F288
:103B0C008832934201D903234FE02B4B9B6803F07F
:103B1C000C027B685B689B009A42EBD1254B1B68BF
:103B2C0003F00F023B689A420CD9224B3A68D2B28E
:103B3C001A70204B1B6803F00F023B689A4201D0AD
:103B4C00012332E07B681B6803F00403002B08D0D0
:103B5C001949194B9B6823F4E0527B68DB681343CB
:103B6C008B607B681B6803F00803002B09D012499B
:103B7C00114B9B6823F460427B681B69DB00134389
:103B8C008B6000F021F801460B4B9B681B0903F07E
:103B9C000F030A4AD35C21FA03F3094A1360094B59
:103BAC001B681846FDF79CF8002318461037BD46D5
:103BBC0080BD00BF003C0240003802402CAB000826
:103BCC0004000020080000202DE9F04F87B000AF62
:103BDC000022FA6000227A610022BA6000223A6167
:103BEC00514A926802F00C02042A07D0082A08D025
:103BFC00002A40F090804D4B3B618FE04C4B3B6179
:103C0C008CE0494A526802F03F02FA60464A526818
:103C1C0002F48002002A23D0434B5B689B094FF0CF
:103C2C00000440F2FF114FF0000203EA010304EA22
:103C3C0002043F4A02FB04F1002202FB03F20A4495
:103C4C003B49A3FB010153181946FB684FF00004D4
:103C5C001A462346FCF7C4FA03460C467B614CE03B
:103C6C00314A5268920911464FF0000240F2FF159A
:103C7C004FF0000605EA010506EA0206294632461F
:103C8C004FEA421B4BEAD16B4FEA411A51465A4656
:103C9C00AA46B34655465E464D1B62EB06062946C0
:103CAC003246940144EA91648B015B1A64EB020482
:103CBC004FEAC40949EA53794FEAC30843464C46D4
:103CCC0055465E46ED1846EB04062B463446A202DA
:103CDC007A607A6842EA93527A609B023B6097E87A
:103CEC00180018462146FB684FF000041A4623467C
:103CFC00FCF776FA03460C467B610B4B5B681B0C9E
:103D0C0003F0030301335B00BB607A69BB68B2FB51
:103D1C00F3F33B6102E0054B3B6100BF3B69184686
:103D2C001C37BD46BDE8F08F003802400024F4007B
:103D3C0040787D0184B080B584B000AF786007F125
:103D4C001C0080E80E003B6B012B22D17B689B6B27
:103D5C0023F480327B689A637B68DB6823F48403EA
:103D6C0023F040037A68D3607B68DB6823F440124D
:103D7C007B68DA60FB6C012B05D17B68DB6843F454
:103D8C0080127B68DA60786800F09EF90346FB735A
:103D9C001AE07B68DB6843F040027B68DA60786885
:103DAC0000F092F90346FB733B6C002B06D17B6849
:103DBC009B6B43F480327B689A6305E07B689B6B5A
:103DCC0023F480327B689A63BB6A012B0BD17B682E
:103DDC009B6843F006027B689A607B689B6843F0A3
:103DEC0020027B689A60FB7B18461037BD46BDE805
:103DFC00804004B0704780B483B000AF78607B68BB
:103E0C009B6843F001027B689A60002318460C37CC
:103E1C00BD465DF8047B704780B483B000AF78601A
:103E2C007B689B6823F001027B689A60002318462C
:103E3C000C37BD465DF8047B704780B584B000AF8D
:103E4C0078600B46FB700023FB607B68DB6823F01B
:103E5C00C0427B68DA60FB78012B15D17B68DB688C
:103E6C0043F000527B68DA600120FCF789FFFB68A5
:103E7C000133FB60786800F019F90346012B1ED062
:103E8C00FB68312BF0D91AE0FB78002B15D17B683D
:103E9C00DB6843F080427B68DA600120FCF770FF3E
:103EAC00FB680133FB60786800F000F90346002BD7
:103EBC0005D0FB68312BF0D901E0012305E0FB684C
:103ECC00322B01D1012300E0002318461037BD46E8
:103EDC0080BD000080B485B000AF786039600023ED
:103EEC00FB603B689B0143F020027B681A61FB6816
:103EFC000133FB60084A934201D9032306E07B6837
:103F0C001B6903F02003202BF1D000231846143733
:103F1C00BD465DF8047B7047400D030080B485B04E
:103F2C0000AF78600023FB607B6810221A61FB688D
:103F3C000133FB60084A934201D9032306E07B68F6
:103F4C001B6903F01003102BF1D000231846143713
:103F5C00BD465DF8047B7047400D030080B489B00A
:103F6C0000AFF860B96011461A460B46FB71134658
:103F7C00BB80FB687B61BB68FB6197F82830002B2A
:103F8C0023D1BB8803339B083B610023BB6118E042
:103F9C00FB791A037B69134403F580531A46FB69BA
:103FAC001B681360FB690133FB61FB690133FB6127
:103FBC00FB690133FB61FB690133FB61BB690133B5
:103FCC00BB61BA693B699A42E2D300231846243795
:103FDC00BD465DF8047B704780B48BB000AFF860D1
:103FEC00B9601346FB80FB68BB61BB687B62FB88D6
:103FFC009B089BB27B61FB8803F00303FB830023CC
:10400C003B6214E0BB6903F580531A687B6A1A6043
:10401C007B6A01337B627B6A01337B627B6A01338F
:10402C007B627B6A01337B623B6A01333B623A6A97
:10403C007B699A42E6D3FB8B002B1DD000233B629D
:10404C0007F11003BA6902F5805212681A603A69D6
:10405C003B6ADBB2DB0022FA03F3DAB27B6A1A703A
:10406C003B6A01333B627B6A01337B62FB8B013B16
:10407C00FB83FB8B002BEAD17B6A18462C37BD46A1
:10408C005DF8047B704780B485B000AF78607B68C6
:10409C005B69FB607B689B69FA681340FB60FB689B
:1040AC0018461437BD465DF8047B704780B483B066
:1040BC0000AF78607B685B6903F0010318460C372E
:1040CC00BD465DF8047B704780B485B000AF786066
:1040DC000023FB60FB680133FB60134A934201D958
:1040EC0003231AE07B681B69002BF3DA0023FB60C7
:1040FC007B681B6943F001027B681A61FB68013322
:10410C00FB60094A934201D9032306E07B681B69D3
:10411C0003F00103012BF1D0002318461437BD46E0
:10412C005DF8047B704700BF400D030084B080B580
:10413C0084B000AF786007F11C0080E80E007B684B
:10414C00BB60BB6803F560631A46002313607B6891
:10415C009B6B43F400127B689A637B689B6B23F424
:10416C0000227B689A637B689B6B23F480227B68BC
:10417C009A637B68DB6B03F48073002B1AD07B6A29
:10418C00012B0BD1BB6803F580631A46BB6803F5A2
:10419C0080631B6843F00403136016E0BB6803F5EF
:1041AC0080631A46BB6803F580631B6823F0040325
:1041BC0013600AE0BB6803F580631A46BB6803F51D
:1041CC0080631B6823F00403136010217868FFF7E9
:1041DC0081FE7868FFF7A2FE0023FB6015E0FB6808
:1041EC005A01BB68134403F5A0631A464FF0FF3322
:1041FC009360FB685A01BB68134403F5A0631A462D
:10420C000023D360FB680133FB603A6AFB689A4277
:10421C00E5D87B6800229A617B684FF0FF325A61C7
:10422C007B68DB6B03F48073002B0BD07B684FF443
:10423C0000725A627B68144A9A627B68134AC3F80C
:10424C00002109E07B6880225A627B68104A9A62DE
:10425C007B68104AC3F80021BB6A002B05D17B6830
:10426C009B6943F010027B689A617B689A690A4BE0
:10427C0013437A689361002318461037BD46BDE896
:10428C00804004B0704700BF000200010003E00052
:10429C0080006000E0004000080020A380B485B0DE
:1042AC0000AF78600B46FB707B68FB60FB6803F526
:1042BC0080631A46FB6803F580631B6823F00303D5
:1042CC001360FB6803F580631946FB6803F5806394
:1042DC001A68FB7803F0030313430B60FB78012B84
:1042EC0007D1FB6803F580631A464BF680335360A5
:1042FC0009E0FB78022B06D1FB6803F580631A46B4
:10430C0041F270735360002318461437BD465DF8B4
:10431C00047B704780B584B000AF78607B68FB602D
:10432C000023BB60FB6803F588631B68BB60BB683C
:10433C0023F02E03BB60FB6803F588631A46BB6849
:10434C0043F4807313606420FCF71AFDFB6803F5DB
:10435C0088631A46BB6823F4807313600A20FCF749
:10436C000FFD002318461037BD4680BD80B485B0C4
:10437C0000AF78600B46FB707B68FB600023BB6072
:10438C00FB6803F588631B68BB60BB6823F02E03D6
:10439C00BB60BB6803F48053002B0AD1FB78012B64
:1043AC0007D1FB6803F588631A46BB6843F4805356
:1043BC001360BB6803F48053B3F5805F0AD1FB78BC
:1043CC00002B07D1FB6803F588631A46BB6823F4FE
:1043DC0080531360002318461437BD465DF8047BE8
:1043EC00704780B485B000AF78607B68FB600023B9
:1043FC00BB60FB6803F588631B68BB60BB685B0C28
:10440C0003F0030318461437BD465DF8047B704770
:10441C0080B485B000AF78607B68FB60FB6803F507
:10442C0080639B689BB218461437BD465DF8047BCD
:10443C007047000080B588B000AF78600846114620
:10444C001A460346FB700B46BB7013467B70002369
:10445C00FB777B683B61FB785A013B69134403F59E
:10446C00A0631A464FF0FF33936097F82C30032B60
:10447C0000F2848001A252F823F000BF9944000896
:10448C00494500089944000809450008FB785A0181
:10449C003B69134403F5A0631A4640F29D43D36075
:1044AC0097F90230002B11DAFB785A013B6913445F
:1044BC0003F5A0631946FB785A013B69134403F5D5
:1044CC00A063DB6843F48073CB605AE07B68DB6BE2
:1044DC0003F48073002B54D0FB785A013B691344CE
:1044EC0003F5A0631946FB785A013B69134403F5A5
:1044FC00A063DB6843F06003CB6042E0FB785A01B9
:10450C003B69134403F5A0631A4640F29D63D360E4
:10451C0097F90230002B36DAFB785A013B691344C9
:10452C0003F5A0631946FB785A013B69134403F564
:10453C00A063DB6843F48073CB6024E0FB785A0102
:10454C003B69134403F5A0631A4640F22523D3605C
:10455C0097F90230002B18DAFB785A013B691344A7
:10456C0003F5A0631946FB785A013B69134403F524
:10457C00A063DB6843F4C073CB6006E00123FB77D8
:10458C0004E000BF02E000BF00E000BF3B6903F5A0
:10459C00806318463B6903F580639A69FB7803F0E6
:1045AC000F03012101FA03F3134383617B689B69B9
:1045BC0043F000727B689A6197F90230002B03DAA2
:1045CC004FF40043BB6101E00023BB617868FFF747
:1045DC0008FFF86097F82830022B06D1FB68022BF5
:1045EC0003D04FF400337B6101E000237B61FB7847
:1045FC005A013B69134403F5A06319467B789B056C
:10460C0003F0FE52BB78DB0203F4F0431A4397F835
:10461C002C309B0403F440231A433B8EC3F30A0350
:10462C001A43BB691A437B6913430B6097F82C3010
:10463C00032B10D1FB785A013B69134403F5A0639B
:10464C001946FB785A013B69134403F5A0631B68B8
:10465C0043F000530B60FB7F18462037BD4680BDEE
:10466C0080B58CB002AFF860B9601346FB71FB6883
:10467C003B62BB685B78FB614FF480737B83FB68A8
:10468C00DB6B03F48073002B2ED0BB681B79002BE3
:10469C002AD1FB79012B18D1BB68DB79002B03D015
:1046AC00BB68DB79022B10D1FB695A013B6A1344BE
:1046BC0003F5A0631946FB695A013B6A134403F5E1
:1046CC00A063DB6823F07003CB60FB79002B0BD16C
:1046DC00BB685B79012B07D1BB685B781946F8681E
:1046EC0000F03EFA0023FCE0BB685B69002B18D09D
:1046FC00BB685B69BA6812891344013BBA681289BA
:10470C00B3FBF2F3FB84FA8C7B8B9A420BD97B8B39
:10471C00FB84FB8CBA68128902FB03F2BB681A613A
:10472C0001E00123FB84BB68DB78002B07D0FB8CFA
:10473C00BA68128902FB03F2BB681A6103E0BB681A
:10474C005A69BB681A61FB695A013B6A134403F549
:10475C00A0631846BB681B69C3F31202FB8CD90417
:10476C00624B0B401A43BB689B7A5B0703F0C04358
:10477C0013430361FB79002B09D0FB695A013B6A97
:10478C00134403F5A0631A46BB68DB6853613B6AAC
:10479C0003F580639B6803F00103002B0CBF01231E
:1047AC000023DBB27B76FB695A013B6A134403F5A9
:1047BC00A0631946FB695A013B6A134403F5A063D5
:1047CC001B6823F000530B60FB695A013B6A1344CE
:1047DC0003F5A0631946FB695A013B6A134403F5C0
:1047EC00A0631A687B7E5B0713430B60FB695A015D
:1047FC003B6A134403F5A0631B683B613B6923F0E0
:10480C0080433B61BB68DB78002B04D03B6943F4ED
:10481C0000433B6103E03B6923F400433B613B698C
:10482C0043F000433B61FB695A013B6A134403F5B7
:10483C00A0631A463B691360FB79002B01D000235F
:10484C004FE0BB68DB78002B4AD1BB685B69002B5F
:10485C0046D0BB68DB79032B30D801A252F823F089
:10486C007D480008A14800087D480008A1480008C0
:10487C00BB685B6903339B08FB82FA8AFB68DB6AC3
:10488C009BB29A421CD9FB689B6943F02002FB68DF
:10489C009A6115E0BB685B6903339B08FB82FA8A5B
:1048AC003B6A03F580631B699BB29A420AD9FB6889
:1048BC009B6943F08062FB689A6103E000BF02E0F1
:1048CC0000BF00E000BFBB68D968BB685A78BB6802
:1048DC005B6998B2002300930346F868FFF73EFB30
:1048EC00002318462837BD4680BD00BF0000F81FC6
:1048FC0080B485B000AF78607B68FB60FB6803F523
:10490C0080635B699BB218461437BD465DF8047B27
:10491C00704780B489B000AF78600B46FB707B6841
:10492C00BB61FB787B610023FB617B695A01BB692E
:10493C00134403F5A0631B689B0C03F003033B615A
:10494C007B695A01BB69134403F5A0631B68DB0F39
:10495C0003F00103FB607B689B6803F02003202BB2
:10496C0004D1FB68002B01D10023F2E03B69002B42
:10497C0002D03B69022B78D17B695A01BB69134485
:10498C0003F5A06319467B695A01BB69134403F50F
:10499C00A0631B6843F080430B607B689B6803F04B
:1049AC002003002B40F0D4807B68DB6A03F47F0388
:1049BC00002B46D17B695A01BB69134403F5A063F4
:1049CC0019467B695A01BB69134403F5A0631B6844
:1049DC0023F000430B607B695A01BB69134403F558
:1049EC00A06319467B695A01BB69134403F5A063A4
:1049FC001B6843F000430B607B695A01BB6913448D
:104A0C0003F5A06319467B695A01BB69134403F58E
:104A1C00A0631B6823F400430B60FB690133FB614B
:104A2C00FB69B3F57A7F1ED87B695A01BB691344C5
:104A3C0003F5A0631B6803F00043B3F1004FECD007
:104A4C0086E07B695A01BB69134403F5A0631946E0
:104A5C007B695A01BB69134403F5A0631B6843F0DF
:104A6C0000430B6074E000BF72E07B695A01BB69C4
:104A7C00134403F5A06319467B695A01BB691344BF
:104A8C0003F5A0631B6843F080430B60BB6903F51F
:104A9C0080631B6903F47F03002B46D17B695A01A9
:104AAC00BB69134403F5A06319467B695A01BB69C2
:104ABC00134403F5A0631B6823F000430B607B6970
:104ACC005A01BB69134403F5A06319467B695A016B
:104ADC00BB69134403F5A0631B6843F000430B60F0
:104AEC007B695A01BB69134403F5A06319467B69C2
:104AFC005A01BB69134403F5A0631B6823F40043FC
:104B0C000B60FB690133FB61FB69B3F57A7F1ED83F
:104B1C007B695A01BB69134403F5A0631B6803F05E
:104B2C000043B3F1004FECD012E07B695A01BB6932
:104B3C00134403F5A06319467B695A01BB691344FE
:104B4C0003F5A0631B6843F000430B6000E000BF5B
:104B5C00002318462437BD465DF8047B70470000DF
:104B6C0080B487B000AF78600B46FB707B687B61CC
:104B7C00FB783B610123FB603B695A017B69134461
:104B8C0003F5A0631946FB68DA04124B134043F09B
:104B9C0000430B613B695A017B69134403F5A06325
:104BAC001B68BB60BB6823F08043BB60BB6843F0F1
:104BBC000043BB603B695A017B69134403F5A06356
:104BCC001A46BB681360002318461C37BD465DF8B7
:104BDC00047B70470000F81F80B586B000AF78608A
:104BEC007B68FB6000237B617868FFF715F9102167
:104BFC007868FFF76FF97868FFF790F900233B614D
:104C0C001FE03B695A01FB68134403F5A0631B6862
:104C1C00BB60BB6843F08043BB60BB6823F00043C0
:104C2C00BB60BB6823F40043BB603B695A01FB6863
:104C3C00134403F5A0631A46BB6813603B69013348
:104C4C003B613B690F2BDCD900233B6134E03B69B2
:104C5C005A01FB68134403F5A0631B68BB60BB6877
:104C6C0043F08043BB60BB6843F00043BB60BB6850
:104C7C0023F40043BB603B695A01FB68134403F502
:104C8C00A0631A46BB6813607B6901337B617B6947
:104C9C00B3F57A7F0CD83B695A01FB68134403F5D2
:104CAC00A0631B6803F00043B3F1004FECD000E0AD
:104CBC0000BF3B6901333B613B690F2BC7D9FB68D4
:104CCC0003F580631A464FF0FF3353617B684FF056
:104CDC00FF325A617868FFF78EF8002318461837B0
:104CEC00BD4680BD80B500AF0449054805F05EFAAD
:104CFC0003461A46034B1A7000BF80BD30B2002029
:104D0C003CAB000898D2002080B400AF00231846BA
:104D1C00BD465DF8047B704780B483B000AF03469A
:104D2C00FB71002318460C37BD465DF8047B7047B9
:104D3C0080B584B000AF0346FB710123FB73FB7994
:104D4C001946084800F011FE0346002B02D0002340
:104D5C00FB7301E00123FB73FB7B18461037BD4648
:104D6C0080BD00BF9CD2002080B594B002AFB9606A
:104D7C007A603B600346FB73012387F84730F97B6D
:104D8C003B680093BB687A68124800F038FE034613
:104D9C00002B03D1002387F8473015E007F11002F0
:104DAC00FB7B19460B4800F006FE7B7F282B03D0BB
:104DBC003A2B01D0042B03D1032387F8473003E0AF
:104DCC00012387F8473000BF97F84730184648371B
:104DDC00BD4680BD9CD2002080B594B002AFB960B6
:104DEC007A603B600346FB73012387F84730F97BFD
:104DFC003B680093BB687A68174800F069FE03466D
:104E0C00002B03D1002387F847301FE007F1100275
:104E1C00FB7B1946104800F0CEFD7B7F272B09D079
:104E2C00272B02DC042B09D00CE0282B06D03A2BC4
:104E3C0004D007E0022387F8473007E0032387F804
:104E4C00473003E0012387F8473000BF97F847301D
:104E5C0018464837BD4680BD9CD2002080B590B026
:104E6C0000AF03463A60FB710B46BB71012387F818
:104E7C003F30BB79032B52D801A252F823F000BF6C
:104E8C009D4E0008A54E0008CF4E0008FB4E0008B2
:104E9C00002387F83F3045E007F10802FB791946FB
:104EAC00234800F088FD0346002B06D1FA683B68C6
:104EBC001A60002387F83F3034E0012387F83F3035
:104ECC0030E007F10802FB791946194800F073FD30
:104EDC000346002B07D13B8A1A463B681A60002315
:104EEC0087F83F301EE0012387F83F301AE007F1C6
:104EFC000802FB7919460E4800F05DFD0346002BB5
:104F0C0009D13B8A5B0A9BB21A463B681A600023A4
:104F1C0087F83F3006E0012387F83F3002E0042396
:104F2C0087F83F3097F83F3018464037BD4680BD74
:104F3C009CD2002090B589B004AF78607B68D3F820
:104F4C007C33197950230622786801F04FFC034614
:104F5C00FB73FB7BFF2B02D0FB7B012B01D90223C4
:104F6C00EFE0FB7B1946786801F024FC0346BB7329
:104F7C00BB7B002B01D00223E3E07B68D3F87C439E
:104F8C004FF4807005F0ACFC0346E3617B68D3F80A
:104F9C007C33DB69BB60BB68002B01D10223D0E002
:104FAC004FF480720021B86805F0B5FCFB7B7A6881
:104FBC001A2101FB03F3134403F24E331B785BB24B
:104FCC00002B16DAFB7B7A681A2101FB03F31344DE
:104FDC0003F24E331A78BB68DA71FB7B7A681A21BC
:104FEC0001FB03F3134403F554731A88BB685A810D
:104FFC0015E0FB7B7A681A2101FB03F3134403F2DF
:10500C004E331A78BB689A71FB7B7A681A2101FBC4
:10501C0003F3134403F554731A88BB681A81FB7BA2
:10502C007A681A2101FB03F3134403F256331B78FD
:10503C005BB2002B16DAFB7B7A681A2101FB03F3B7
:10504C00134403F256331A78BB68DA71FB7B7A6827
:10505C001A2101FB03F3134403F556731A88BB683A
:10506C005A8115E0FB7B7A681A2101FB03F3134488
:10507C0003F256331A78BB689A71FB7B7A681A2153
:10508C0001FB03F3134403F556731A88BB681A81AA
:10509C00BB6800221A73BB6800225A73BB680022DB
:1050AC009A73BB689B791946786802F0C2FD034677
:1050BC001A46BB685A71BB68DB791946786802F0EE
:1050CC00B8FD03461A46BB681A71786800F0A4FD57
:1050DC00BB685979BB6898797B6893F81C437B68EB
:1050EC0093F81D33BA68128902920222019200933E
:1050FC0023460246786802F06DFDBB681979BB68DF
:10510C00D8797B6893F81C437B6893F81D33BA6895
:10511C005289029202220192009323460246786839
:10512C0002F058FDBB681B7900221946786805F01F
:10513C00CFFABB685B7900221946786805F0C8FA8B
:10514C00002318461437BD4690BD80B584B000AF1F
:10515C0078607B68D3F87C33DB69FB60FB685B7938
:10516C00002B0ED0FB685B791946786802F051FD74
:10517C00FB685B791946786802F07CFDFB680022BD
:10518C005A71FB681B79002B0ED0FB681B791946F2
:10519C00786802F03EFDFB681B791946786802F0CE
:1051AC0069FDFB6800221A717B68D3F87C33DB69DC
:1051BC00002B0BD07B68D3F87C33DB69184605F0E9
:1051CC0097FB7B68D3F87C330022DA610023184606
:1051DC001037BD4680BD80B584B000AF78607B6869
:1051EC00D3F87C33DB69BB600123FB73BB689B7B0F
:1051FC00022B04D0032B3ED0002B00D04AE0BB681E
:10520C001946786800F0EAFC0346FB73FB7B032B22
:10521C0004D1BB6800221A700023FB73FB7B002BAC
:10522C0035D1BB681B78022B04D8BB681B780133C3
:10523C00DAB200E00222BB681A700023BB7314E0E0
:10524C00BB7BBA68342101FB03F313449233022273
:10525C001A70BB7BBA68342101FB03F31344C133CE
:10526C0000221A70BB7B0133BB73BB681B78BA7B03
:10527C009A42E5D30BE00021786802F078F80346F7
:10528C00002B06D1BB68DA7BBB689A7301E000BFC8
:10529C0000E000BFFB7B18461037BD4680BD000008
:1052AC0080B586B000AF78607B68D3F87C33DB695F
:1052BC003B610123FB750123FB730123BB733B692A
:1052CC001B7B002B03D0012B00F0718272E23B6937
:1052DC00B3F8F8203B691B789BB29A4280F04F825E
:1052EC003B69B3F8F83019463A69342303FB01F3F0
:1052FC001344913301221A703B69B3F8F830194604
:10530C003A69342303FB01F3134490331B78082BC5
:10531C0000F2438201A252F823F000BF4D53000863
:10532C00A757000815540008995500087353000836
:10533C0065560008A7570008A757000879570008BA
:10534C003B69B3F8F83019463A69342303FB01F38F
:10535C001344903304221A707B68D3F8C4233B693E
:10536C00C3F8FC2022E23B69B3F8F830D9B23B69B0
:10537C00B3F8F8301A46342303FB02F398333A6936
:10538C00134407331A46786800F068FF0346FB7332
:10539C00FB7B002B0BD13B69B3F8F83019463A690B
:1053AC00342303FB01F31344903302221A70FB7B6A
:1053BC00022B0CD13B69B3F8F83019463A69342307
:1053CC0003FB01F31344903305221A70E7E1FB7BD6
:1053DC00042B40F0E4813B69B3F8F83019463A6984
:1053EC00342303FB01F31344903301221A703B69FD
:1053FC00B3F8F83019463A69342303FB01F313442C
:10540C00913302221A70CAE13B69B3F8F830DBB26F
:10541C001946786800F064FE0346BB73BB7B002B17
:10542C0049D13B69B3F8F83019463A69342303FB88
:10543C0001F3134492331B78002B0CD03B69B3F867
:10544C00F83019463A69342303FB01F31344C13392
:10545C0001221A700BE03B69B3F8F83019463A692F
:10546C00342303FB01F31344C13300221A703B694C
:10547C00B3F8F83019463A69342303FB01F31344AB
:10548C00903303221A703B69B3F8F83019463A6925
:10549C00342303FB01F31344913300221A703B694C
:1054AC00B3F8F83019463A69342303FB01F313447B
:1054BC00923300221A70BB7B022B4AD13B69B3F8A2
:1054CC00F83019463A69342303FB01F31344923341
:1054DC001B78022B0CD03B69B3F8F83019463A69AB
:1054EC00342303FB01F31344C13301221A700BE084
:1054FC003B69B3F8F83019463A69342303FB01F3DE
:10550C001344C13300221A703B69B3F8F8301946C2
:10551C003A69342303FB01F31344903305221A70C8
:10552C003B69B3F8F83019463A69342303FB01F3AD
:10553C001344913301221A703B69B3F8F8301946C1
:10554C003A69342303FB01F31344923302221A7099
:10555C0027E1BB7B042B40F024813B69B3F8F83086
:10556C0019463A69342303FB01F3134490330122A7
:10557C001A703B69B3F8F83019463A69342303FBC7
:10558C0001F31344913302221A700AE13B69B3F818
:10559C00F830D9B23B69B3F8F8301A46342303FB20
:1055AC0002F390333A69134404331A46786800F0D6
:1055BC00DAFD0346FB73FB7B002B20D13B69B3F870
:1055CC00F83019463A69342303FB01F31344903342
:1055DC0001221A703B69B3F8F83019463A69342342
:1055EC0003FB01F31344913300221A703B69B3F8A7
:1055FC00F83001339AB23B69A3F8F820D3E0FB7B77
:10560C00022B0CD13B69B3F8F83019463A693423B4
:10561C0003FB01F31344903305221A70C3E0FB7BA8
:10562C00042B40F0C0803B69B3F8F83019463A6956
:10563C00342303FB01F31344903301221A703B69AA
:10564C00B3F8F83019463A69342303FB01F31344D9
:10565C00913302221A70A6E03B69B3F8F830D9B244
:10566C003B69B3F8F8301A46342303FB02F3983342
:10567C003A69134404331A46786800F094FE0346E2
:10568C00FB73FB7B002B45D13B69B3F8F830194613
:10569C003A69342303FB01F313449C331B78062B28
:1056AC000CD03B69B3F8F83019463A69342303FB44
:1056BC0001F313449C331B78022B17D17B68D3F86E
:1056CC00C4233B69D3F8FC30D31A42F20F729342D5
:1056DC000CD83B69B3F8F83019463A69342303FB0C
:1056EC0001F31344903302221A705FE03B69B3F864
:1056FC00F83019463A69342303FB01F31344903311
:10570C0001221A703B69B3F8F83001339AB23B6945
:10571C00A3F8F820FB7B022B0CD13B69B3F8F830D3
:10572C0019463A69342303FB01F3134490330822DE
:10573C001A703AE0FB7B042B37D13B69B3F8F83095
:10574C0019463A69342303FB01F3134490330122C5
:10575C001A703B69B3F8F83019463A69342303FBE5
:10576C0001F31344913302221A701EE03B69B3F823
:10577C00F83001339AB23B69A3F8F82016E03B6984
:10578C000022A3F8F8203B6901221A737B68D3F836
:10579C00D4330221786898470CE000BF0AE000BFC0
:1057AC0008E000BF06E000BF04E000BF02E00023F9
:1057BC00FB7500BFFB7D18461837BD4680BD00BF8A
:1057CC0080B483B000AF7860002318460C37BD4618
:1057DC005DF8047B704780B588B002AF78600B46EB
:1057EC00FB707B68D3F87C33DB693B610123FB7571
:1057FC000123FB73FB783A69342101FB03F3134457
:10580C0090331B78062B04D0072B37D0052B6AD08E
:10581C00A6E0F9780023009300230022786800F0BA
:10582C00A6FE0346FB73FB7B002B0BD1FB783A697E
:10583C00342101FB03F31344903301221A7000232B
:10584C00FB7588E0FB7B022B09D1FB783A6934218C
:10585C0001FB03F31344903305221A707BE0FB7BAE
:10586C00042B78D1FB783A69342101FB03F3134400
:10587C00903308221A700223FB756CE0F978002330
:10588C00009300230022786800F006FE0346FB73A9
:10589C00FB7B002B0BD1FB783A69342101FB03F322
:1058AC001344903301221A700023FB7555E0FB7BE7
:1058BC00022B09D1FB783A69342101FB03F3134421
:1058CC00903305221A7048E0FB7B042B45D1FB7802
:1058DC003A69342101FB03F31344903308221A7004
:1058EC000223FB7539E0FB78342202FB03F3983377
:1058FC003A6913441A1DFB781946786800F053FD79
:10590C000346FB73FB7B002B13D1FB783A693421E4
:10591C0001FB03F31344903301221A70FB783A69AC
:10592C00342101FB03F31344913302221A70022336
:10593C00FB75FB7B022B12D0FB7B042B0FD1FB786E
:10594C003A69342101FB03F31344903308221A7093
:10595C000223FB7503E000BF02E000BF00E000BFC4
:10596C00FB7D18461837BD4680BD80B485B000AFAE
:10597C0078600B46FB707B68D3F87C33DB69BB60CB
:10598C007B681B78DBB20B2B0CD1FB78BA6834210B
:10599C0001FB03F3134491331B78002B02D1012339
:1059AC00FB7301E00023FB73FB7B18461437BD46E9
:1059BC005DF8047B704780B586B000AFF8600B468D
:1059CC007A60FB72FB68D3F87C33DB697B61FB6824
:1059DC001B78DBB20B2B0DD1FB7A342202FB03F3C9
:1059EC0090337A69134434221946786804F088FF9E
:1059FC00002300E0022318461837BD4680BD80B551
:105A0C0088B002AFF8607A603B600B46FB72FB68B3
:105A1C00D3F87C33DB697B61FB6893F82033DBB212
:105A2C00002B0ED0FB681B78DBB20B2B09D1FB7A59
:105A3C007A69342101FB03F3134490331B78012B57
:105A4C0001D0022340E07B6906221A73FB7A7A6943
:105A5C00342101FB03F31344903306221A70FB7AB2
:105A6C009AB27B69A3F8FA20F97A3B6A00933B68F7
:105A7C007A68F86800F07BFDFB68D3F8C4333B61AF
:105A8C0016E0FB68D3F8C4233B69D21A3B6A42F296
:105A9C00107101FB03F39A4205D8FB6893F820338D
:105AAC00DBB2002B04D17B6901221A7302230BE0B9
:105ABC00FB7A1946F868FFF78EFE0346012BE0D0FF
:105ACC007B6901221A73002318461837BD4680BD26
